:020000040800F2
:100000000000022005100008AD040008AF0400083D
:10001000FF0F0008FF0F0008FF0F0008000000009E
:1000200000000000000000000000000001100008B7
:1000300001100008000000001306000899040008E1
:10004000FF0F0008FF0F0008FF0F0008FF0F000858
:10005000FF0F0008FF0F0008FF0F0008FF0F000848
:10006000FF0F0008FF0F0008FF0F0008FF0F000838
:10007000FF0F0008FF0F0008FF0F0008FF0F000828
:10008000FF0F0008FF0F0008FF0F0008FF0F000818
:10009000FF0F0008FF0F0008FF0F0008FF0F000808
:1000A000FF0F0008FF0F0008FF0F0008FF0F0008F8
:1000B000FF0F0008FF0F0008FF0F0008FF0F0008E8
:1000C000FF0F0008FF0F0008FF0F0008FF0F0008D8
:1000D000FF0F0008FF0F0008FF0F0008FF0F0008C8
:1000E000FF0F0008FF0F0008FF0F0008FF0F0008B8
:1000F000FF0F0008FF0F0008FF0F0008FF0F0008A8
:10010000FF0F0008FF0F0008FF0F0008FF0F000897
:10011000FF0F0008FF0F0008FF0F0008FF0F000887
:10012000FF0F0008FF0F0008FF0F0008FF0F000877
:10013000FF0F0008FF0F0008FF0F0008FF0F000867
:10014000FF0F0008FF0F0008FF0F0008FF0F000857
:10015000FF0F0008FF0F0008FF0F0008FF0F000847
:10016000FF0F0008FF0F0008FF0F0008FF0F000837
:10017000FF0F0008FF0F0008FF0F0008FF0F000827
:10018000FF0F0008FF0F0008FF0F0008FF0F000817
:10019000FF0F0008FF0F0008FF0F0008FF0F000807
:1001A000FF0F0008FF0F0008FF0F000838B51048C8
:1001B00001F0ECF800F0A6FD04460E4801F0E6F868
:1001C00024B90D4801F0E2F8642504E021460B480B
:1001D00001F09AF80C250024013400F03DF8214686
:1001E000074801F091F8284600F03AFDF4E700BF17
:1001F000187800081B7800082D780008327800086D
:100200003D7800081FB50F4C00BF013CFCD100F049
:1002100033F822464FF400710B4800F051FB78B9D7
:10022000012302934FF480630193084B0093084A23
:1002300008482346102100F0FBFA08B900F064FBDF
:10024000FEE700BF40420F00C80C0020C808002095
:10025000AD010008C80E002008B54FF480510448D5
:1002600000F006FE40210348BDE8084000F000BE53
:10027000000C02400000024070B5EFF3108301242F
:1002800084F31088334E344D4FF4C06000F0A9FE63
:1002900040F2036000F0A5FE214630464FF4704363
:1002A000002200F0EDFD402300222146284600F008
:1002B000E7FD2846402100F0D9FD4FF4805130463B
:1002C000264C00F0D3FD4FF4C06000F08AFE40F6EB
:1002D000110000F086FE204600F05AFE0C2328464E
:1002E0000022022100F0CCFD04222846072100F064
:1002F000E9FD20464FF4614100F00CFE2046082144
:1003000000F020FE2046002100F025FE20460C21B2
:1003100000F02DFE2046002100F023FE00212046A3
:1003200000F02BFE204600F02EFE0D4800F0B6FE39
:10033000042000F0BBFE00F0C5FE00F0CBFEFF2164
:10034000FE2000F0CFFEFE21FF2000F0CBFE0020BB
:1003500070BD00BF000C024000000240004400409D
:100360000071020010B5EFF31081012383F31088B0
:100370000B4B1A680AB90B4A1A600B4C1B682468AD
:1003800000F580621A44944223BF054AC0181060E9
:100390000023EFF3108281F31088184610BD00BFD0
:1003A000181300201C390020000000084FF0FF3017
:1003B00070474FF400534B60002070470120704796
:1003C00000207047022870B50E4614460DDC154615
:1003D0004DB1094800F0ECFDC0B20D2808BF0A205D
:1003E0003070013DF4E7204670BD00F08FFE05231C
:1003F00003604FF0FF3070BD00440040022870B52C
:100400000D46144611DC8E18B5420CD02B780A2B01
:1004100003D10D21084800F0C0FD15F8011B064866
:1004200000F0BBFDF0E7600070BD00F06FFE05233B
:1004300003604FF0FF3070BD0044004008B500F08D
:1004400023F928B1D0F8343413B1D0F838049847E0
:10045000FEE7000010B5064B044600F108029A6062
:1004600000F050FE2046BDE8104000F0A1B800BFEB
:100470001C13002008B5064B1A6842B159600831B8
:10048000996000F03FFE034B4FF080521A6008BDA8
:100490001C13002004ED00E008B500F0EDF800F0BA
:1004A000A7FB0120BDE8084000F026BAFEE7FEE702
:1004B00038B5044621F003006FF0020540F8245CD3
:1004C0004FF080714FF0BB3540F8041C40F8285CB9
:1004D000354940F8081C4FF0AA3540F82C5C4FF025
:1004E000EE314FF0993540F80C1C40F8305C4FF07D
:1004F000CC314FF0883540F8101C40F8345C4FF098
:1005000033314FF0773540F8141C40F8385C4FF029
:1005100022314FF0663540F8181C40F83C5C4FF033
:1005200011314FF0553540F81C1C40F8405C00215B
:100530004FF0443540F8201C40F8445DC4F83424A2
:100540002060C4F838344FF4856204F1080000F0EC
:100550007DFE04F53D73E36004F55773236104F5F4
:1005600071736361114BE36301220023C4E92C23FF
:1005700043F20E33A4F8B8304AF6CD33A4F8BA30BB
:1005800041F23423A4F8BC304EF26D63A4F8BE30BF
:100590004DF6EC63A4F8C0300523A4F8C2300B2359
:1005A000A4F8C43038BD00BF3D04000854780008EA
:1005B000012181F310882B49096881F308882A49B1
:1005C000086048608A68294B1A60016881F30988CD
:1005D0000221EFF314820A4382F3148804B0F0BCC2
:1005E000A046A946B246BB4688B0F0BC09B00FBCD5
:1005F00084468E4604B485B006BC03B006B485B00C
:1006000003BC03B0002283F3008882F310880CBD82
:1006100000BF012080F3108815484FF00061016091
:10062000114801684268914217D0EFF309831EF028
:10063000100F08BF23ED108A23E9F04F0B60026012
:1006400084680A4B1C601368B3E8F04F1EF0100F6B
:1006500008BFB3EC108A83F30988002080F3108868
:10066000704700BF000000081C1300200800002095
:1006700004ED00E0FEE70000024A13680133136056
:10068000704700BF80170020034B1B6813B9034B52
:1006900018687047002070478017002084170020DA
:1006A00070B570B169B10268134614465BB193F836
:1006B000306491F83054AE4217D81C46D3F8403419
:1006C000F4E7C92070BD52B1C1F83C44C1F84034D0
:1006D000C4F840140BB1C3F83C14002070BD016095
:1006E000C1F83C24C1F84024F7E79A42ECD100233A
:1006F0000160C1F83C34C1F84024C2F83C14ECE776
:1007000068B1036863B1D3F840140160002209B1F5
:10071000C1F83C24C3F83C24C3F8402400E003465D
:100720001846704730B520B3026822B31346154609
:10073000994216D18A42D1F8402405D1026052B1C3
:100740000020C2F83C0406E0C5F84024D1F840245B
:100750000AB1C2F83C540022C3F84024C3F83C2438
:100760000AE0D3F840441D460CB12346E0E7214699
:1007700002E0014600E01146084630BD78B103684A
:1007800083B193F830248A420BD8D3F84024026016
:1007900042B10021C2F83C14C3F8401402E0034601
:1007A00000E0002318467047F8B51E4B1B78002B5D
:1007B00036D0EFF31086012383F310881A4D2C688E
:1007C00094F84434012B2F460AD11848FFF798FFBC
:1007D000844201461FD00023286080F8443417E08B
:1007E000012894F8301401D0A9B1013989B2C9B2F5
:1007F0000E48FFF7C3FF054668B121460B48FFF7D7
:100800004FFFAC4207D000233D6085F844342946B1
:100810002046FFF72FFEEFF3108386F31088F8BD14
:10082000F8BD00BF2C1300208417002028130020DF
:10083000F8B58C469E46069F079D0446B8B3B2B3F2
:10084000AFB3A5B325F003050026291F80F8446443
:1008500080F830C4C0F83C64C0F84064C0F8486414
:100860003944C4F83424C4F83834FFF721FEEFF3D8
:100870001085012383F310880F482146FFF710FFEE
:10088000044628B1EFF3108385F31088CC20F8BD1F
:10089000EFF3108385F31088084B1B78012B08D1E8
:1008A000FFF7F2FE30B12046FFF77EFF01E0C920DE
:1008B000F8BD2046F8BD00BF281300202C130020EF
:1008C0001FB5084C00232360074C2360074C23709E
:1008D0008DE80700064A0748FF21FFF7A9FF04B08B
:1008E00010BD00BF84170020281300202C13002007
:1008F0007506000830130020024A1368013B13609C
:10090000FFF752BF8017002008B5074B07480122A8
:10091000FF211A70FFF732FF28B1054B1860BDE8C0
:100920000840FFF797BD08BD2C13002028130020B6
:100930008417002038B50446B8B1EFF310850123C1
:1009400083F310880368022283F845240168406815
:100950000023C1F84834FFF7E5FE21680348FFF79C
:100960009FFEEFF3108385F3108838BD2813002015
:1009700020B100230171036018467047C9207047F9
:100980002DE9F0478046D8B300264FF001094FF01B
:10099000CA0AEFF31087FDB289F310884046FFF7CB
:1009A000AFFE044600B380F845A401461648FFF7A1
:1009B00077FE28B1EFF3108385F31088CC2417E07D
:1009C000D4F8480450B100F0F1F828B1EFF31083E7
:1009D00085F31088CD240BE0C4F84804EFF31083AE
:1009E00087F310880126D4E7EFF3108385F310888E
:1009F0003EB1FFF749FE20B10020FFF7D5FE00E031
:100A0000C9242046BDE8F087281300202DE9F043D3
:100A10000C4687B00646002855D0EFF310874FF0FC
:100A2000010989F310880379002B44D100293CDBAC
:100A3000FFF72AFE054690B301463046FFF730FE29
:100A4000804628B1EFF3108387F31088CC203BE079
:100A500085F84494B4B102A81D4BC5F848048DE84C
:100A600060000293CDF80CD0049400F087F860B1D8
:100A700029463046FFF756FE85F84484C5F8488479
:100A8000CD2002E0C5F848442046EFF3108387F3F9
:100A90001088C8B9FFF788FE95F8450414E0EFF315
:100AA000108387F31088C8200EE0EFF3108387F3DC
:100AB0001088032008E0013B0371EFF3108387F3F4
:100AC0001088002000E0C92007B0BDE8F08300BF17
:100AD0003509000870B5002838D0EFF310860123DF
:100AE00083F31088046834B3FFF70AFE0546014615
:100AF0001848FFF7D5FD28B1EFF3108386F310886F
:100B0000CC2424E085F84504D5F8480418B900241D
:100B1000C5F8484404E000F049F80028F7D0CD2497
:100B2000EFF3108386F31088FFF7AEFD78B1002055
:100B3000FFF73AFE0BE00379FF2B1ABF0133037175
:100B4000CB24EFF3108386F3108800E0C9242046FD
:100B500070BD00BF2813002010B560B1EFF3108402
:100B6000012383F3108801680348FFF799FDEFF331
:100B7000108384F3108810BD2813002090B10368FF
:100B800083B1836873B1EFF31081012383F310887D
:100B9000054B1A68C2601860EFF3108381F3108868
:100BA00000207047C92070478817002030B5D8B1A1
:100BB000EFF31085012383F310880C4A11680B466C
:100BC0000C465BB1834206D18B42DB680CBF1360DD
:100BD000E360002003E01C46DB68F2E7CE20EFF381
:100BE000108385F3108830BDC92030BD88170020E0
:100BF000F8B5184B1B785BB3174A184913680133D3
:100C000013600B6800221D461E4614469646944605
:100C1000ABB19868DF680138986068B9AB4212BF21
:100C2000F7603D46012214B1CEF80C3000E01C46BE
:100C3000C3F80CC09E4633461E463B46E8E702B169
:100C40000D602CB123680BB160689847E468F8E741
:100C5000F8BD00BF2C1300208C170020881700203F
:100C600030B587B00446FFF70FFD034614B318B341
:100C7000EFF31085012282F3108880F8442401905C
:100C80000F4A029202A801AAC3F8480404940392EE
:100C9000FFF774FF044628B1EFF3108385F3108843
:100CA000CD200AE0EFF3108385F31088FFF77CFD79
:100CB000204602E0C92000E0C82007B030BD00BFD8
:100CC000590B000810B50021C4B20A48FFF79EFE78
:100CD00018B1094800F05AFB07E008490B78DBB26D
:100CE0005A1CD2B20A70064AD4546420FFF7B8FFE7
:100CF000FBE700BFD8380020567800089017002086
:100D0000E038002030B5002185B04748FFF730FEBD
:100D1000012418B1454800F039FB82E04FF48063AC
:100D20000193434B009302942346424A42481121C7
:100D3000FFF77EFD18B1414800F028FB00E00446B3
:100D40001920FFF78DFF012302934FF48063019375
:100D50003B4B0093374A3B4802231121FFF768FDC4
:100D600018B1364800F012FB01341920FFF778FF64
:100D7000012302934FF480630193334B00932D4A78
:100D8000324803231021FFF753FD18B12B4800F020
:100D9000FDFA01341920FFF763FF012302934FF49A
:100DA000806301932A4B0093224A2A48042310218E
:100DB000FFF73EFD18B1214800F0E8FA0134192090
:100DC000FFF74EFF244B00221A7004251648FFF748
:100DD00081FE18B1214800F0D9FA01341920FFF73B
:100DE0003FFF013DF2D11E480378032B08D1437821
:100DF000042B05D18378012B02D1C378022B08D0B4
:100E0000017842788378C0780090164800F07CFA28
:100E100001340548FFF7B4FD18B1134800F0B6FAE5
:100E20000134204605B030BDD8380020667800086F
:100E3000D8280020C50C00089817002086780008E4
:100E4000D82C0020E81B0020D830002038200020BB
:100E5000D83400208824002090170020A1780008B2
:100E6000E0380020AB780008C27800088161704744
:100E7000436921EA03020B4042EA0343836170475E
:100E80002DE9F0410668C568002443FA04F7FF071E
:100E900011D567004FF0030C0CFA07FC6FEA0C0C3D
:100EA00001FA07F80CEA06060CEA050502FA07F74C
:100EB00046EA08063D430134102CE6D10660C560C1
:100EC000BDE8F081F0B5056A446A002342FA03F6F2
:100ED000F70707D59E000F27B74025EA070501FA57
:100EE00006F635430133082BF0D1002303F1080641
:100EF00042FA06F6F60707D59E000F27B74024EA08
:100F0000070401FA06F634430133082BEED10562DB
:100F10004462F0BD084A094B10B520F48064944245
:100F20001B6804BF064B1B6801EB43034900B3FB7E
:100F3000F1F3836010BD00BF0010014000000020ED
:100F400004000020C36808290CBF23F4805343F435
:100F50008053C3607047036923F440531943016110
:100F60007047C36823F4C0631943C1607047C36806
:100F700023F00C031943C1607047436923F44073A5
:100F8000194341617047C36843F40053C36070471D
:100F9000C36823F40053C360704738B504460D4658
:100FA00000F017F820462946BDE8384000F009B89F
:100FB00010B5044600F011F82046BDE8104000F0DE
:100FC00004B8C1F30801416070474068C0F30800ED
:100FD000704703681B06FCD5704703689B06FCD569
:100FE0007047430903F1804303F50E3300F01F00FF
:100FF0001A68012101FA00F0104318607047FEE7FB
:101000007047000000221A491A485318834204D23C
:10101000194BD35853500432F5E7184A934203D280
:1010200000221A600433F8E7154B164C1A6842F494
:1010300000721A605A6F42F470025A67124B9C4257
:1010400003D254F8043B9847F8E7104C104B9C42ED
:1010500003D254F8043B9847F8E7FFF7D3F80D4C58
:101060000D4B9C4203D254F8043B9847F8E700BF6D
:1010700000000020C8080020A87A00081C390020C1
:1010800014ED00E0A87A0008A87A0008A87A000801
:10109000A87A0008A87A0008A87A0008024B20F075
:1010A0007F401860704700BF14E000E0044B1A68EE
:1010B00000F0040022F0040202431A60704700BFEF
:1010C00010E000E0024B1A6842F002021A6070471A
:1010D00010E000E0024B1A6842F001021A6070470B
:1010E00010E000E05A2804D900F00F00044BC1546E
:1010F000704700F1604000F564400170704700BF28
:1011000014ED00E0BFF35F8F70470000014B1868DB
:10111000704700BF08000020844641EA000313F036
:1011200003036DD1403A41D351F8043B40F8043BEE
:1011300051F8043B40F8043B51F8043B40F8043BB1
:1011400051F8043B40F8043B51F8043B40F8043BA1
:1011500051F8043B40F8043B51F8043B40F8043B91
:1011600051F8043B40F8043B51F8043B40F8043B81
:1011700051F8043B40F8043B51F8043B40F8043B71
:1011800051F8043B40F8043B51F8043B40F8043B61
:1011900051F8043B40F8043B51F8043B40F8043B51
:1011A00051F8043B40F8043B403ABDD2303211D3F1
:1011B00051F8043B40F8043B51F8043B40F8043B31
:1011C00051F8043B40F8043B51F8043B40F8043B21
:1011D000103AEDD20C3205D351F8043B40F8043BF1
:1011E000043AF9D2043208D0D2071CBF11F8013BEF
:1011F00000F8013B01D30B8803806046704700BFB5
:10120000082A13D38B078DD010F003038AD0C3F1C3
:101210000403D21ADB071CBF11F8013B00F8013BA5
:1012200080D331F8023B20F8023B7BE7043AD9D364
:10123000013A11F8013B00F8013BF9D20B78037039
:101240004B7843708B7883706046704770B4840726
:1012500046D0541E002A41D0CDB2034602E0621EA1
:10126000E4B3144603F8015B9A07F8D1032C2ED996
:10127000CDB245EA05250F2C45EA054519D903F1FC
:1012800010022646103E0F2E42F8105C42F80C5C0D
:1012900042F8085C42F8045C02F11002F2D8A4F1B2
:1012A000100222F00F0204F00F041032032C13443A
:1012B0000DD91E462246043A032A46F8045BFAD8A2
:1012C000221F22F003020432134404F003042CB161
:1012D000C9B21C4403F8011BA342FBD170BC704788
:1012E00014460346C2E700BF0EB400B582B003AB9C
:1012F000816853F8042B019300F07EF802B05DF88A
:1013000004EB03B0704700BF0FB400B5074983B0CA
:1013100004AB086853F8042B8168019300F06CF863
:1013200003B05DF804EB04B0704700BF0800002074
:10133000F0B5044689B008460D4600F02FF8A368C2
:10134000114F9A890495022100F1010E012604AD86
:10135000029191040590CDF80CE00697079601954F
:1013600006D4596E42F4005221F400519A81596614
:101370001946204601AA02F05FFE002814BF4FF074
:10138000FF300A2009B0F0BDD8780008024B0146B2
:101390001868FFF7CDBF00BF0800002020F0030150
:1013A00010F00300C0F1000051F8043B00F1040C00
:1013B0004FEACC0C6FF000021CBF22FA0CF2134370
:1013C0004FF0010C4CEA0C2C4CEA0C4CA3EB0C0239
:1013D00022EA030212EACC1204BF51F8043B0430A3
:1013E000F4D0C2F1000102EA0102B2FA82F2C2F1C3
:1013F0001F0200EBD20070472DE9F04FBFB01C4632
:101400008B460592824603F017F80368129318463C
:10141000FFF7C4FF0B941390BAF1000F04D0DAF871
:101420003830002B00F0BA83BBF80C2093B29F0435
:101430000AD4DBF8641042F4005321F40051ABF8F5
:101440000C30CBF864109BB21E0740F1D982DBF858
:101450001020002A00F0D48203F01A030A2B00F0B7
:10146000DD829FED897B8DED107B00230DF1B808A7
:101470000E932393229315930893CDF88480C1464D
:10148000CDF81CA0CDF818B0059C2378002B00F0F7
:10149000F781252B02D1F3E1252B03D014F8013F6E
:1014A000002BF9D1059BE51A95B1229B239A05994A
:1014B000C9F8001001332A44072BC9F804502392BD
:1014C000229300F3448309F10809089B2B440893F5
:1014D0002378002B01F0358000234FF0FF3B1A46A4
:1014E00001348DF867301946184603935D46267817
:1014F0000134A6F12003582B00F2E885DFE813F051
:101500004305E605E6052004E605E605E605E605ED
:10151000E605E60526049D03E6056000D403E6051E
:101520001A04A305A305A305A305A305A305A30505
:10153000A305A305E605E605E605E605E605E605D9
:10154000E605E605E605E605B2054604E6054604B9
:10155000E605E605E605E6059D05E605E6054A0518
:10156000E605E605E605E605E6057605E605E60593
:10157000CD04E605E605E605E605E605E605E6052D
:10158000E605E605E605F8040D05460446044604AE
:101590003D050D05E605E6055900E6053104A00305
:1015A00065005900E6058104E605A604E605E605A2
:1015B000EE03039B43F01003039398E740420B9321
:1015C000039B43F00403039391E7302300210A9027
:1015D0008DF8683003980B9B059478268D4203F1B3
:1015E0000404AB468DF869608DF867101B6840F005
:1015F0000202C0F2818520F0800242F002020392D2
:101600000B942348002B00F04781454603F00F025E
:101610001B09825C05F8012DF8D1C5EB080309937D
:10162000099B5B45B8BF5B46049300230D9311B142
:10163000049B01330493039B13F002030C9302D029
:10164000049B02330493039B13F0840740F02B8127
:101650000A9B049AC2EB030ABAF1000F40F32381FC
:101660000C4B2399229A0F93BAF1100F36DD534693
:1016700014964846BA46A9461024079D069E1F4662
:101680000FE000BFAFF3008000000000000000008A
:1016900020790008DC780008103F102F00F10800C6
:1016A00016DD0132B14B22921031072A239180E8D6
:1016B0001800F1DD21AA3146284604F05BFB002822
:1016C00040F03985103F102F2399229A4046E8DCDC
:1016D0003B46149E4D46574681469A4601320F9B23
:1016E00022920AEB0104072A239489E8080400F3F4
:1016F00014859DF8671009F1080971B1229B013327
:1017000001340DF167010122072B2394229389E80C
:10171000060000F32F8209F108090C9B6BB1229B94
:10172000013302341AA90222072B2394229389E859
:10173000060000F3298209F10809802F00F01C81BE
:10174000099BC3EB0B07002F3DDD102F229BDFF819
:1017500024A22BDD50464A462146A946B2464FF008
:10176000100B079C069D064604E0103F102F02F167
:10177000080215DD01331031072B2391229382E8F3
:101780004008F2DD21AA2946204604F0F3FA002899
:1017900040F0D381103F102F2399229B4246E9DC71
:1017A0004D46914632460C465646924601333C44DD
:1017B000072B23942293C9F800A0C9F8047000F302
:1017C000CF8109F10809039BDF056ED4229B09999B
:1017D000C9F8005001330C44072B2394C9F80410B6
:1017E000229300F3A08109F10809039B580734D51F
:1017F0000A9B049A9D1A002D2FDD5C4A229B0F92B2
:10180000102D20DD1026079FDDF818A004E0103D04
:10181000102D09F1080916DD0133544A22931034C2
:10182000072B239489E84400F1DD21AA514638466C
:1018300004F0A0FA002840F0FD84103D102D239CF8
:10184000229BC146E8DC01330F9A22932C44072BDC
:10185000239489E8240000F32784089B0A9A0499BA
:101860008A42ACBF9B185B180893002C40F034816F
:10187000059C002322932378C146002B7FF409AEF8
:10188000059C25E6BBF1000F8DF86730C0F2F385AB
:10189000039B23F080030393BBF1000F00F0FC8354
:1018A00000210B46B1E6239C27E7652E40F3C48058
:1018B00000220023DDE9100105F054FF002800F0AC
:1018C0007181229B2A4AC9F8002001330134012288
:1018D000072B23942293C9F8042000F3D08509F143
:1018E00008091B9B0E9A934203DB039BD8077FF5E5
:1018F0007CAF229B1399129AC9F8002001330C4443
:10190000072B2394C9F80410229300F3488609F1A9
:1019100008090E9B5D1E002D7FF767AF102D229BDF
:10192000DFF850A040F30A841026079FDDF818B0B6
:1019300005E009F10809103D102D40F3FF83013344
:101940001034072B23942293C9F800A0C9F804602F
:10195000EFDD21AA5946384604F00CFA002840F081
:10196000ED80239C229BC146E5E700BFDC780008A0
:101970003C790008EC7800080A9B049A9F1A002F13
:101980007FF7DEAE102F229BDFF85CA62ADD5046E3
:101990004A462146A946B246079C069D064604E0F3
:1019A000103F102F02F1080216DD01331031102014
:1019B000072B2391229316605060F1DD21AA29465E
:1019C000204604F0D7F9002840F0B780103F102FD0
:1019D0002399229B4246E8DC4D46914632460C460E
:1019E0005646924601333C44072B23942293C9F870
:1019F00000A0C9F8047000F3818409F108099FE68A
:101A00005946504600F0FEFF002840F09685BBF88E
:101A10000C3003F01A030A2B7FF423ADBBF90E3010
:101A2000002BFFF61EAD2346059A5946504600F09E
:101A3000B3FF3FB0BDE8F08F0E9B229E012B40F319
:101A4000FB83013601340123072E23942296C9F823
:101A50000050C9F8043000F3178409F10809139AFB
:101A6000129BC9F8003001361444072E23942296A5
:101A7000C9F8042000F3358409F108090023002285
:101A8000DDE9100105F06EFE0E9B80B35D1E002D9A
:101A90003CDD102DDFF850A540F317841027DDF84A
:101AA0001CB005E009F10809103D102D40F30D842C
:101AB00001361034072E23942296C9F800A0C9F8E5
:101AC0000470EFDD21AA0699584604F053F958B97D
:101AD000239C229EC146E7E721AA0699079804F0B5
:101AE00049F900283FF4C4AEDDF818B026E0013B08
:101AF000013601351C44072E22962394C9F8005064
:101B0000C9F8043000F3A88309F10809159AC9F847
:101B10000420013614441DAB072E23942296C9F8E5
:101B200000307FF760AE21AA0699079804F022F9E9
:101B30000028D9D1239CC14657E6AB46BBF80C30F0
:101B4000590600F1FA8408983FB0BDE8F08F21AA49
:101B50000699079804F00EF90028C5D1C146B4E4EF
:101B600021AA0699079804F005F90028BCD1239C06
:101B7000C14628E621AA0699079804F0FBF8002838
:101B8000B2D1239CC146C8E521AA0699079804F062
:101B9000F1F80028A8D1239CC146CEE5504602F0BA
:101BA000F5F841E41B9E002E40F375840D9B0E9AC0
:101BB0009342A8BF1346002B1E460DDD229BC9F899
:101BC000005001333444072B2394C9F80460229356
:101BD00000F3148509F108090D9B002EA8BF9B1B7B
:101BE000002B1E4640F3C582102E229BDFF8F8A37F
:101BF00040F3338451462246AA461027DDF81CB034
:101C0000069C0D4605E009F10809103E102E40F330
:101C1000208401331032072B2392229389E8A000FD
:101C2000F1DD21AA2146584604F0A4F8002840F02E
:101C3000E284239A229BC146E7E701222B2156E446
:101C40000A90AB460594002A40F07C86039810F079
:101C5000100100F0AE8100210B9B8DF867108B45C1
:101C600003F104021B68C0F2EE8320F080000390B1
:101C70000B92002B00F02382454603F0070230321E
:101C8000DB0805F8012DF8D1039BDB077FF5C5AC18
:101C9000302A3FF4C2AC30226B1E05F8012CC3EB96
:101CA000080209921D46BBE426782A2E04F101049D
:101CB00000F01586A6F13003092B4FF000053FF622
:101CC00018AC14F8016B05EB850503EB4505A6F18F
:101CD0003003092BF5D945EAE5750AE40A90AB46CD
:101CE0000594002A40F02386039BBA48DA0640F1A7
:101CF000DF800B9A039C136814F0010102F10402C7
:101D00000B9200F0E480002B3FF4BCAD0021039C5B
:101D10008DF8696030228B458DF868208DF867104A
:101D200044F00202C0F2C78424F0800242F00202B2
:101D300003926AE4039B43F080030393FFF7D7BB4E
:101D4000039B43F001030393FFF7D1BB0B9E306865
:101D50003346002803F10403FFF630AC0B93FFF782
:101D6000C6BB0594002A40F0F585039BD80600F118
:101D7000CC81039B590640F1C8810B9A1368043249
:101D80000B92BDF820201A80FFF77EBB0A90AB466D
:101D90000594002A40F0DA85039B0B9F1C0707F18E
:101DA000070740F1468327F0070393ED007B8DED95
:101DB000107B03F108020B92DDE9104545EC104B56
:101DC00003F0AEFD012840F0B78200220023204638
:101DD000294605F0D1FC002840F070849DF867107A
:101DE00003987D4D7D4B03224FF0000B20F08000C7
:101DF00004920390472ED8BF1D460992CDF834B007
:101E000015E40B9A0594AB4615680A9000248DF8EA
:101E10006740171D002D00F02884BBF1000FC0F2B1
:101E2000E3835A462146284602F03CFE002800F093
:101E30007A84431B0993A34623EAE3730B97049325
:101E4000CDF834B09DF86710FFF7F1BB0A90AB46B0
:101E50000594002A40F06385039810F0100200F00A
:101E6000D48000210B9B8DF867108B4503F1040291
:101E70001B68C0F26F8120F0800003900B92002B52
:101E800068D11946BBF1000F00F0078100233EAD79
:101E9000303305F8413DFFF7C0BB0A90AB460594CF
:101EA000002A40F06785039B4D48DA063FF521AFD5
:101EB0000B9A039B039C13F0400F134614BF138827
:101EC0001B68043214F001010B927FF41CAFBBF1CC
:101ED000000F8DF86710C0F22E8324F08002039269
:101EE000002B7FF492ABBBF1000F7FF4D9ACD3E0B1
:101EF0000A900B98059402688DF890200023024602
:101F000019468DF867300432012304938B460D91F6
:101F10000B92099324ADFFF78EBB0A90AB46059454
:101F2000002A40F02385039BDD0640F1A9800B9A2F
:101F3000136804320B92002BC0F2EC81BBF1000F4E
:101F40009DF86710C0F20781039A22F08002039285
:101F5000002B97D0092B9AD94546224AA2FB0302AF
:101F6000D20802EB8200A3EB4003303305F8013DB9
:101F70001346002AF1D1FFF750BB039B43F0400307
:101F80000393FFF7B4BA00297FF4B1AA01222021FC
:101F9000FFF7ADBA0A90AB460594002A40F0E28400
:101FA000039B43F010030393039810F010017FF498
:101FB00052AE039C14F0400000F073810B9B8DF82F
:101FC0006710BBF1000F03F104021B88C0F23B82D3
:101FD00020464AE62079000800790008FC780008CD
:101FE0000C790008CDCCCCCCEC7800080A90AB463C
:101FF0000594002A40F0B284039B43F0100303933E
:10200000039810F010027FF42CAF039810F04001F9
:1020100000F02E810B9B8DF86720BBF1000F03F1C0
:1020200004011B88C0F2408320F0800003900B91D4
:10203000002B3FF426AF11468CE7039B43F00803C7
:102040000393FFF754BAA6F13003002014F8016B94
:1020500000EB800003EB4000A6F13003092BF5D91B
:10206000FFF747BA0A90AB460594002A40F05B841C
:10207000039B43F010030393039BDD063FF557AF2B
:102080000B9A039B13F0400F134614BFB2F90030B4
:102090001B6804320B924EE759464FF0000BCDF807
:1020A00024B04546FFF7BCBA21AA0699079803F069
:1020B00061FE00287FF418AD239CFFF7CEBBBBF177
:1020C000000F00F0578300210B46D5E50A900594D8
:1020D000002A40F03384002E00F0338200230122D6
:1020E000194604928DF890608DF867309B460D93E9
:1020F000099224ADFFF79FBA8D4803920B94002BF1
:1021000000F0B9810021FFF780BA0B9A13680432FE
:102110000B92089A1A60FFF7B7B921AA0699079897
:1021200003F028FE00287FF4DFAC9DF86710239CA5
:10213000C146FFF7E2BAB34600E5BA4601332C4484
:10214000072B23942293C9F800A0C9F804507FF705
:102150004AABE8E40B92002B7FF4FCAE97E621AA91
:102160000699079803F006FE00287FF4BDAC239C77
:10217000C1460D9A1B9B2A4417460E9A934248DB90
:10218000039AD20745D40E990D44ED1BCB1A9D42FC
:10219000A8BF1D46002D2E460DDD229AC9F80070FD
:1021A00001322C44072A2394C9F80450229200F3E8
:1021B0004E8209F10809002EACBF9D1B1D46002D63
:1021C0007FF713AB102D229BDFF868A1B6DD5746D1
:1021D0001026DDF818B0DDF81CA004E009F10809AC
:1021E000103D102DA9DD01331034072B23942293C9
:1021F000C9F80070C9F80460F0DD21AA59465046BC
:1022000003F0B8FD00287FF499AC239C229BC146C3
:10221000E6E7229A13981299C9F800100132044493
:10222000072A2394C9F80400229200F3F38109F1EC
:102230000809A8E7D34681E4039BDF073FF501AC1B
:10224000013601340123072E23942296C9F8005049
:10225000C9F804307FF758AC21AA0699079803F013
:1022600089FD00287FF440AC239C229EC1464DE4AA
:102270000B9B8DF86710BBF1000F03F104021B6884
:10228000FFF668AF0398F6E521AA0699079803F0D0
:1022900071FD00287FF428AC239C229EC146FFF7E5
:1022A000DEBB0B9B8DF86700BBF1000F03F104024E
:1022B0001B68C0F2C88003990B9221F08001039142
:1022C000002B3FF4FCAE0146D6E401362C44072E29
:1022D00023942296C9F800A0C9F804507FF714ACE3
:1022E000BAE721AA0699079803F044FD00287FF475
:1022F000FBAB239C229EC146FFF7C0BB21AA0699D7
:10230000079803F037FD00287FF4EEAB239CC1460D
:10231000FFF716BA2D21BBF1000FC3F100038DF8B2
:102320006710FFF617AE039A22F08002039211E6BF
:1023300020790008EC7800089DED100B03F0F0FA0E
:10234000002800F00D81BBF1FF3F26F0200A00F0CD
:102350000382BAF1470F04D1BBF1000F08BF4FF061
:10236000010B119B039A002B42F480720C92C0F275
:1023700026829DED107B8DED167B00230493662E47
:1023800000F00782462E00F03D82BAF1450F0CBFE7
:102390000BF101075F461FAA1CAB019200933A465E
:1023A0001BAB02219DED160B079800F021FC672E58
:1023B000054600F07381472E00F0A482EC1900223C
:1023C0000023DDE9160105F0CDF9002840F08281F7
:1023D0001F9B9C4206D930215A1C1F9219701F9BCB
:1023E0009C42F9D85B1BBAF1470F0E9300F06B814A
:1023F000652E40F392821B9B0D93662E00F0F581B3
:102400000D9A0E998A42C0F2E381039BDC0700F12A
:102410004C8222EAE27309926726049A002A40F06D
:10242000338104930C9B039393469DF86710FFF749
:10243000FEB827F0070797ED007B07F108038DED45
:10244000107B0B93B8E4002B0B920CBF19460021B4
:1024500012E414462A465546924601333444072B6B
:1024600023942293C9F800A0C9F804603FF777AE1F
:1024700009F108097DE619460023FFF7C6B821AA2D
:102480000699079803F076FC00287FF42DAB239C77
:10249000C146FFF726BA229BB14AC9F80020013392
:1024A00001340122072B23942293C9F804206ADC0B
:1024B00009F108092EB90E9B1BB9039BD9077FF5BB
:1024C00094A9229B1399129AC9F8002001330C4455
:1024D000072B2394C9F80410229300F3308109F1EB
:1024E00008097642002E71DD102EDFF884A240F339
:1024F000A18051462246AA461027DDF81CB0069C52
:102500000D4605E009F10809103E102E40F38E80BB
:1025100001331032072B2392229389E8A000F1DDCA
:1025200021AA2146584603F025FC002863D1239AAE
:10253000229BC146E8E70B9CE0E54FF0FF30FFF738
:1025400003BB239BDDF81CA0DDF818B0002B3FF483
:10255000F5AA504621AA594603F00CFCFFF7EEBA43
:10256000834603987F4D804B9DF86710CDF834B0BB
:10257000032220F0800004920390472ED8BF1D460E
:102580000992FFF754B821AA0699079803F0F2FBC5
:1025900000287FF4A9AA1B9E239CC1468AE721AA92
:1025A0000699079803F0E6FB00287FF49DAA239C78
:1025B000C146FFF7AEB921AA0699079803F0DAFBE6
:1025C00000287FF491AA239C229BC1460E99C9F84A
:1025D000005001330C44072B23942293C9F80410B4
:1025E0007FF701A9FFF79FBA2846FEF7D7FEA3465B
:1025F0000346099020E4A346FFF7A0BA21AA069952
:10260000079803F0B7FB00287FF46EAA239CC1460D
:10261000FFF7E2BA21AA0699079803F0ABFB00285E
:102620007FF462AA1B9B239CC146ACE514462A4654
:102630005546924601333444072B23942293C9F81C
:1026400000A0C9F80460B6DC09F10809BEE721AAB8
:102650000699079803F08EFB00287FF445AA1B9B80
:102660000E9A239CD31AC146A5E55B46062B28BFCC
:102670000623099323EAE373AB4629460D950B978E
:1026800004933A4DFEF7D3BF2D2104930C9B039383
:102690008DF867104FF0000BFEF7CABF039BDA07F7
:1026A0003FF58CAE1F9B9DE60B911146002B7FF4EE
:1026B00051ACFFF7ECBB0392FEF7A7BF2D218DF8BD
:1026C0006710FFF78DBB1B9BD91C05DB9B4503DB0C
:1026D0000D9395E6234685E6023E013B002B1B93B6
:1026E000BABF5B422D222B22092B8DF874608DF826
:1026F000752000F39A80303330228DF877308DF8D2
:1027000076201EAB1DAA9B1A0E9A1593012A13441C
:10271000099340F3D180099B0022013309930D9264
:1027200023EAE37379E62BEAEB73CDF824B0049344
:1027300083460B970D909DF86710FEF778BF21AA8E
:102740000699079803F016FB00287FF4CDA91B9E7D
:10275000239C229BC146C4E64FF0060B01E600BF56
:102760003C790008087900080479000834790008E9
:10277000EC780008039BDB07594605D53EAD3023B6
:1027800005F8413DFEF749BFCDF824B04546FEF7B8
:1027900047BF1FAA1CAB019200935A461BAB0321F3
:1027A0009DED160B079800F023FA5F46054600EBF7
:1027B0000B042B78302B63D01B9F3C44FFE5DDE9F5
:1027C000101202F1004317932D2316910493D6E5BE
:1027D0000D9B0E9A002BD4BFC3F1020301231344B7
:1027E0000993672623EAE37317E6002B6EDDBBF13E
:1027F000000F52D1039AD2074FD41A46099223EA06
:10280000E3730AE61FAA1CAB019200935A461BAB66
:1028100003219DED160B079800F0EAF95F46054687
:10282000462E05EB0704C4D0C9E50DF1830420460C
:10283000524A82FB0321DA17C2EBA10202EB8201AA
:10284000A3EB410303F13001092A134600F8011DEF
:10285000EEDC02463033DBB202F8013D94426AD925
:102860000DF17601024601E012F8013B01F8013B4F
:102870009442F9D1631C1B1A0DF17602134441E70F
:1028800000220023DDE9160104F06CFF002893D13B
:10289000C7F101071B973C4491E50D9B0BF1010724
:1028A0003B44099323EAE373B7E50D9B0133099396
:1028B000672623EAE373B0E5039B13F001037FF47B
:1028C0002AAF0D93099B23EAE373A6E5BBF1000F42
:1028D00012D1039BDF070FD4012309939DE50B9EC3
:1028E00035683346002D03F10403BFF637AA0B9376
:1028F0004FF0FF35FEF7FBBD0BF10203099323EA0E
:10290000E3738AE5039BD8078AD41F9BBAF1470F6C
:10291000A3EB05030E933FF4D6AE1B9BDDE68DF8CB
:102920006710FFF799BA8DF86710FFF7A1BB8DF814
:102930006710FFF7D9B90DF17603E3E68DF867105C
:10294000FFF7C9BB8DF86710FFF780B98DF86710E6
:10295000FFF722BA8DF86710FFF707BA8DF86710F6
:10296000FFF74ABB8DF86710FFF71ABB8DF86710A9
:10297000FFF7D9BA8DF86710FFF795BA67666666F4
:1029800010B4044C13460A46014620685DF8044B17
:10299000FEF732BD08000020F0B50C46ADF26C4DDC
:1029A0008989666EE589199621F00201666AADF89B
:1029B0000E500025E769ADF80C10099606951AAE81
:1029C0004FF4806569460096049602950595079731
:1029D0000646FEF711FD051E07DB3046694601F08D
:1029E000C5F8002818BF4FF0FF35BDF80C305B0666
:1029F00003D5A38943F04003A38128460DF26C4D13
:102A0000F0BD00BF38B52F4B1B6805460C4613B10F
:102A10009A6B002A36D0A28993B218070CD5206988
:102A2000A8B113F001021ED0636900225B42A361CA
:102A3000A260F0B1002038BDD9063BD5580725D497
:102A4000206942F00803A3819BB20028E9D103F476
:102A50002072B2F5007FE4D02846214601F0FCFC4C
:102A6000A3892069DDE7990758BF6269A260002841
:102A7000E0D1A3891A06DED543F04003A3814FF0CD
:102A8000FF3038BD184601F081F9C4E7216B49B128
:102A900004F14003994203D0284601F0E5F9A289E8
:102AA0000023236322F0240200232069636092B292
:102AB0002060C6E742F0400209232B604FF0FF3050
:102AC000A28138BD0800002002690B69934200F31F
:102AD0008D802DE9F04F03F1FF3801F1140700F16B
:102AE000140B57F828205BF828304FEA880483B08D
:102AF0000132B3FBF2F90BEB0403009407EB040A79
:102B00000193B9F1000F39D00025BC46DE462B46B3
:102B10005CF8046BDEF80020B4B209FB0455360CF7
:102B20002C0C09FB0644ADB25B1BA6B213FA82F370
:102B3000C6EB124606EB23469BB243EA0643E24548
:102B40004EF8043B4FEA14454FEA2643E0D2009B7F
:102B50005BF8033093B9019C231F9B450CD254F8BA
:102B6000043C4BB9A4F1080302E01A68043B1AB90B
:102B70009B4508F1FF38F8D3C0F81080044602F0F6
:102B800091FA00282EDB09F101095D46002357F870
:102B9000041B28688AB29A1A090C12FA80F2C1EB57
:102BA000104303EB224391B241EA0341BA4545F891
:102BB000041B4FEA2343EAD25BF828200BEB88037F
:102BC00082B91A1F93450BD253F8042C42B9083B23
:102BD00002E01A68043B1AB99B4508F1FF38F8D3A4
:102BE000C4F81080484603B0BDE8F08F002070475D
:102BF0002DE9F04F57EC106B9BB0046C249D0091B5
:102C000081460592039310EE10AABB4654B1426C64
:102C1000626001239340A360214602F015F800236F
:102C2000C9F84030BBF1000F5C4634DB00232B6059
:102C3000A14B1A462340934216D00022002350464F
:102C4000594604F08FFD56465F46804648B3039AC6
:102C500001231360259B002B00F0BE80974818606D
:102C600001381BB0BDE8F08F039A42F20F73136076
:102C7000BAF1000F00F09A809148259B002BF0D00C
:102C8000C378002B00F0AA8000F10803259A136096
:102C90001BB0BDE8F08F01232BF000442B60A3464E
:102CA000C6E718AA19A947EC106B484602F038FB92
:102CB000250D0A9040F08380189D199E2E4406F23F
:102CC0003243202B40F38882C3F1400306F21240C6
:102CD0009C402AFA00F0204304F066FA0123741E97
:102CE000A1F1F8710F930022764B04F01FF96CA349
:102CF000D3E9002304F0CEFA6BA3D3E9002304F058
:102D000017F9064620460F4604F05EFA68A3D3E999
:102D1000002304F0BFFA02460B463046394604F061
:102D200007F906460F4604F04FFD002204900023E9
:102D30003046394604F020FD002840F02882049EE9
:102D4000162E00F22182604B03EBC603D3E900018B
:102D500052465B4604F02EFD002800F04282731EAE
:102D6000049300230D932D1BB5F1010800F12A8275
:102D700000230793049B002BC0F21B8298440C9302
:102D800000230693009B092B2AD8052B40F3448689
:102D9000043B00930026009B023B032B00F223869A
:102DA000DFE813F02B03240236035004444B474A58
:102DB000C4F31300002814BF184610465DE7CBF398
:102DC000130343F07F51A5F2FF345046CDF83C8009
:102DD00041F44011189D86E73D4842E7C31C55E782
:102DE0000021C9F8441048460C46009101F006FF46
:102DF0004FF0FF3308930E9301230990C9F8400068
:102E000005940B93199B002BC0F2D080049A0E2AD4
:102E100000F3CC802C4B03EBC20393ED007B059BAE
:102E2000002B8DED007BC0F2FE8256465F46DDE949
:102E300000AB304652465B46394604F055FB04F081
:102E4000C3FC044604F0C0F952465B4604F022FA83
:102E50000B4602463946304604F068F8099D04F1F5
:102E600030032B70089B012B06460F4605F1010528
:102E700061D00022174B04F00DFA00220023064611
:102E80000F4604F06FFC00287DD1CDF81490DDF8DA
:102E900020A0DDF824B0DDE9008928E0AFF3008050
:102EA00061436F63A787D23FB3C8608B288AC63F50
:102EB000FB799F501344D33F0000F07F3D79000819
:102EC0004C7900080000F83F70790008407900084C
:102ED0003C7900080000244004F0DCF900220023C3
:102EE00006460F4604F03EFC002840F0AE83424602
:102EF0004B463046394604F0F7FA04F065FC0446C8
:102F000004F062F942464B4604F0C4F902460B460F
:102F10003046394604F00AF804F1300E05F801EBAA
:102F2000CBEB050ED64506460F464FF00002AE4BE2
:102F3000D2D1DDF8149032463B463046394603F094
:102F4000F7FF06460F4602460B46DDE9000104F096
:102F500013FC40B932463B46DDE9000104F002FCB7
:102F600088B1E3070FD515F8014C099A6B1E04E0F0
:102F70009A4200F0FC8313F8014D392C03F101054E
:102F8000F6D001341C700A99484601F05DFE00221B
:102F9000049B2A70039A01331360259B002B00F0D9
:102FA0009B8309981D601BB0BDE8F08F0B9A002A27
:102FB00000F00E81009A012A40F35782089B069A7E
:102FC0005F1EBA42C0F28B83D71B089B002BC0F256
:102FD0008084079D089B079A01211A44484607925E
:102FE000984401F015FF064665B1B8F1000F09DD00
:102FF0004545079A2B46A8BF4346D21A0792ED1AB9
:10300000C3EB0808069B002B40F3F5820B9A002ABD
:1030100000F00282002F00F0FF8131463A46484618
:1030200001F098FF0A9A01460646484601F0FAFE6A
:103030000A990446484601F007FE069BDB1B0693EF
:1030400040F0E9810121484601F0E2FE0C9B069028
:10305000002B00F0158201461A46484601F07AFF1F
:10306000009B0690012B40F3F3820027069A136918
:1030700002EB8303186901F07DFEC0F1200040449B
:1030800010F01F0000F0FA81C0F12003042B40F380
:10309000BD84C0F11C00079B034407930544804492
:1030A000079B002B05DD21461A46484601F0A2FF8A
:1030B0000446B8F1000F05DD42460699484601F086
:1030C00099FF06900D9B002B40F07A82089B002B05
:1030D00040F393820B9B002B40F0F481DDF824B089
:1030E000089FDDF818805D4602E001F0B7FD044658
:1030F00041462046FFF7E8FC00F1300A05F801AB35
:10310000CBEB0503BB424FF00A024FF00003214610
:103110004846EADB099B089A012AACBF9B18013399
:103120001D464FF0000B21460122484601F062FF88
:1031300006990A9001F0B6FF002840F3058315F8C0
:10314000012C09996B1E04E08B4200F0748213F885
:10315000012D392A03F10105F6D001321A700699C2
:10316000484601F071FD002E3FF40DAFBBF1000F9A
:1031700005D0B34503D05946484601F065FD3146B8
:10318000484601F061FDFEE601230D93EBE5DDF815
:103190001080404604F018F802460B463046394687
:1031A00004F0E0FA00287FF4CAAD08F1FF3304937D
:1031B000C5E5079A049BD21A5B4206930023079247
:1031C0000C93DFE5C8F1000307934FF00008D1E549
:1031D000069F079D0B9E07E7C3F120040AFA04F03F
:1031E0007AE50D90BFE500BF0000244000230B935B
:1031F000049B059A13440E930133002B089340F36C
:103200007D82089C25460021172DC9F844100BD952
:10321000012204235B0003F11400A842114602F1CD
:103220000102F7D9C9F84410484601F0E7FC0E2C1A
:103230000990C9F840003FF6E5AD002E3FF4E2AD3D
:1032400004990029CDE910AB40F39A82904B01F02C
:103250000F020E1103EBC203F006D3E9004540F163
:1032600046828C4B50465946D3E9082304F03CF97A
:10327000CDE9120106F00F064FF0030A86B1854F23
:10328000F10709D520462946D7E9002304F002F8C2
:103290000AF1010A04460D46761007F10807EFD13E
:1032A00022462B46DDE9120104F01EF906460F46C0
:1032B0000D9B43B10022784B3046394604F05CFA4E
:1032C000002840F01A83504603F07EFF32463B460A
:1032D00003F0E0FF714B002203F02AFE089B044636
:1032E000A1F15075002B00F0DB81049B1693089B25
:1032F00012930B9B002B00F09482129A644B684946
:1033000003EBC20353E90223002004F0EDF8224648
:103310002B4603F00BFE82468B463046394604F0BE
:1033200053FA044603F050FF02460B463046394636
:1033300003F0FCFD3034099DE4B206460F462C70C4
:1033400002460B4650465946013504F033FA002830
:1033500050D132463B4600204F4903F0E7FD02467C
:103360000B465046594604F025FA002840F00883E1
:10337000129A012A40F3F781129B099ACDF84880EE
:10338000134498460DE00020434903F0CFFD524618
:103390005B4604F0F1F9002840F0F282454500F068
:1033A000E0815046594600223E4B03F073FF002255
:1033B0003C4B82468B463046394603F06BFF0F4646
:1033C000064604F001FA044603F0FEFE02460B46F0
:1033D0003046394603F0AAFD3034E4B252465B462B
:1033E00005F8014B06460F4604F0C6F932463B4647
:1033F0000028C8D0169B0493C5E500230B93059BBA
:10340000002B40F380811D461C460E930893FAE67C
:1034100001230B93F3E70A94069A0A99484601F0B0
:1034200099FD04460EE6089B002B3FF7FEAC40F0EA
:103430004F8100221C4BDDE9000103F02BFF5B46AE
:10344000524604F0ADF9089B06931E46002800F092
:10345000EA80059B099DDB4304930699484601F0E9
:10346000F3FB002E3FF48FAD89E60F9A002A00F09F
:10347000388203F23343069F079DACE51C200AE621
:10348000009B012B40F380820C9F0120F7E500BFD9
:1034900070790008607A00080000F03F00001C40CE
:1034A0000000E03F000024400000144031460023AB
:1034B0000A22484601F0D2FB0E9B002B064640F341
:1034C0008D820893002D05DD31462A46484601F0DD
:1034D00091FD0646002F40F07C81B046089B099A7A
:1034E000013BD31808930AF001030A931746DDF84D
:1034F00018B020465946FFF7E7FA31460546204600
:1035000001F0D0FD424659468246484601F0ECFDA6
:10351000C268834605F13003002A49D1014620469E
:10352000079301F0BFFD59460590484601F08CFB1A
:10353000059A079B2AB9009919B90A99002900F040
:103540003582BAF1000FC0F2E38005D1009919B9B4
:103550000A99002900F0DC80002A00F34E81089AC5
:103560003B7007F1010A9742554600F0528121460F
:1035700000230A22484601F071FB464504463146C5
:103580004FF000034FF00A0248460BD001F066FBF3
:103590004146064600230A22484601F05FFB574693
:1035A0008046A4E701F05AFB5746064680469EE750
:1035B00001464846059301F047FB0122059BC0E701
:1035C0000699204601F06EFD0028BFF67FAD21462A
:1035D000049C0023013C0A224846049401F03EFB6F
:1035E0000B9B0446002B7FF461AF0E9B002B40F336
:1035F000ED81089372E50A9C24E5009B022B7FF77E
:1036000069AD089B002B40F09D8106990522484634
:1036100001F024FB01460690204601F043FD0028FE
:103620000A947FF716AF049A099931230132049264
:103630000B704D1C11E7049A01320492099A312350
:1036400013708CE501230B93D2E5DDF814909AE416
:10365000BAF1000F7FF409ADCBF31303002B40F058
:103660003E812BF000473F0D3F052FB1079B0133F3
:10367000079308F1010801270C9B0120002B3FF460
:10368000FEACF3E4504603F09FFD32463B4603F0A8
:1036900001FE0022BF4B03F04BFC0446A1F1507524
:1036A000304639460022BC4B03F040FC22462B46F4
:1036B00006460F4604F07EF8002840F0AE80224611
:1036C00005F100433046394604F056F800284AD048
:1036D000002306931E46BCE60998FFF7C2BA069B74
:1036E0000C9A0697FB1A1A440C9200276DE49DED84
:1036F000107B4FF0020A8DED127BBFE51C460021C6
:10370000C9F8441090E501240E9408940594F6E756
:10371000002A9A4611DD21460122484601F06AFC42
:103720000699044601F0BEFC002840F34881BAF136
:10373000390F00F0098105F1310AB34687F800A07E
:103740007D1C46460A940AE504D11AF0010F01D007
:10375000F5E4154615F8013C302B05F1FF32F8D0A1
:10376000FDE4DDF84880DDE910ABFFF74BBB0999BC
:1037700030220A70049A15F8014C0132049200E4D8
:10378000049B5C42002C00F0B380844B04F00F02D9
:1037900003EBC203D3E90023DDE9100103F07AFD56
:1037A000241106460F4600F016817D4D4FF0020AA7
:1037B000E20709D530463946D5E9002303F06AFD12
:1037C0000AF1010A06460F46641005F10805EFD11B
:1037D0006EE57168484601F011FA33699A1C054696
:1037E000920006F10C010C30FDF796FC29460122EF
:1037F000484601F0FFFB804670E6392B00F0A480BC
:1038000003F1010AB34687F800A07D1C46460A94DE
:10381000A5E4B3469A46464685E4002306931E4631
:1038200001E7129B5D495A1E01EBC2012B4617921C
:10383000D1E90001224603F02DFDCDE914013946FE
:10384000304603F0C1FF044603F0BEFC0B460246BF
:103850003946304603F06AFB129B0F460999303413
:10386000012B06460C7001F1010520D0129B099A2C
:1038700013449A46AB4600224A4B3046394603F081
:1038800009FD0F46064603F09FFF044603F09CFC2B
:10389000303402460B463046394603F047FB0BF8FE
:1038A000014BDA4506460F46E5D1179B1D44002221
:1038B0003D4BDDE9140103F03BFB32463B4603F090
:1038C0005BFF002848D0169B049315F8014CFFF7C6
:1038D0004CBB079B089A9D1A0023FFF77CBB00276F
:1038E000CAE6189B069F079DC3F13603FFF773BB1B
:1038F000DDE910674FF0020ADAE4089B002B3FF481
:10390000C1AE0E9B002B7FF72EAF0022254B304619
:10391000394603F0BFFC06460F460AF1010003F0EA
:1039200053FC32463B4603F0B5FC0022194B03F032
:10393000FFFA049A0E9B1293013A0446A1F15075C6
:103940001692D6E40A9484E53922B3460A94464690
:103950003A707D1CFFF7F5BBDDE914230020124906
:1039600003F0E4FA32463B4603F024FF08B9FAE6D6
:10397000154615F8013C302B05F1FF32F8D039E53A
:10398000169B0493FFF7F1BABAF1000F7FF47CADF8
:1039900062E600BF00001C4000001440707900087F
:1039A000607A0008000024400000E03F392BD34635
:1039B0009A46C9D0BBF1000F3FF7BDAEBDE67FF41C
:1039C000BCAE1AF0010F3FF4B8AEB0E6009B022B7C
:1039D00025DC0E9B0DE64FF0020A69E4009B022BEA
:1039E0001DDC0E9B6DE50024C9F844402146484685
:1039F00001F004F94FF0FF3308930E93012309906F
:103A00000594C9F840000B93FFF7FCB93FF448ABAD
:103A1000C0F13C00FFF73FBB0126FFF7BCB90E9B8E
:103A20000893EEE58B899AB22DE9F0410D46110716
:103A300080463CD46A6843F40063002AAB8173DD9E
:103A4000AE6A002E4BD09BB203F48052002192B29A
:103A5000D8F80040C8F80010002A69D02A6D5F0726
:103A600005D569682B6B521A0BB1EB6BD21A002388
:103A7000E9694046B047461C3CD0AB892A692A60B8
:103A800023F400639BB20022AB81DB046A6049D45B
:103A9000296BC8F8004011B305F14003994202D0E8
:103AA000404600F0E1F900202863BDE8F0812E696E
:103AB000AEB12C682E6090070CBF6B690023A41B6D
:103AC000AB600AE0234632466F6AE9694046B84770
:103AD0000028A4EB0004064404DD002CF2DC0020E6
:103AE000BDE8F081AB8943F04003AB814FF0FF307C
:103AF000BDE8F081D8F800201D2AF3D81A4BD34036
:103B000003F0010383F00101002BEBD0AB89696066
:103B100023F400639BB229692960D904AB81B7D52E
:103B2000002AB5D12865B3E7EA6B002A88DCD6E71E
:103B30000123E9694046B047431C024602D0AB89E5
:103B4000AE6A8CE7D8F80030002BF8D01D2B01D0DE
:103B5000162B02D1C8F80040C1E7AB8943F04003FF
:103B6000AB81BDE8F08100BF0100402010B50446E4
:103B700082B008B1836B53B1B1F90C0008B902B03F
:103B800010BD204602B0BDE81040FFF74BBF0191C9
:103B900000F0FCF80199EFE720B1054B01461868E9
:103BA000FFF7E4BF034B0449186800F0EBBB00BF0C
:103BB00008000020D07800086D3B00080020704706
:103BC000014900F0DFBB00BF296B00082DE9F04F71
:103BD000354B4568C3630024074600F53B72042358
:103BE0000321C0F8E412C0F8E822C0F8E04283B034
:103BF0002C606C60AC606C66EC812C616C61AC61BB
:103C0000AB81214605F15C000822FDF71FFBBE6871
:103C1000DFF898B0DFF898A0DFF89890DFF8988088
:103C2000C5F820B001230922C5F824A0C5F82890C2
:103C3000C5F82C80ED612146F381B28106F15C006C
:103C400034607460B460746634617461B461082275
:103C50000193FDF7FBFAFD68F66112200222C6F817
:103C600020B0C6F824A0C6F82890C6F82C802146BB
:103C7000A881EA812C606C60AC606C662C616C6120
:103C8000AC6105F15C000822FDF7E0FA019BED61F3
:103C9000C5F820B0C5F824A0C5F82890C5F82C8038
:103CA000BB6303B0BDE8F08FC13B00087D5900083D
:103CB000A5590008DD590008FD590008002070478B
:103CC00070B568234D1E03FB05F50E4605F1740122
:103CD00000F032FC044640B100210C30666005F172
:103CE00068022160A060FDF7B1FA204670BD00BFF8
:103CF000204B70B51D68AB6B064613B92846FFF71D
:103D000065FF05F538756B68AC68013B05D521E0AA
:103D1000013B5A1C04F168041CD0B4F90C20002AA1
:103D2000F6D1002501234FF6FF72E281A38165667B
:103D30002560A560656025616561A5612946082249
:103D400004F15C00FDF782FA256365636564A56490
:103D5000204670BD2B680BB11D46D4E704213046C8
:103D6000FFF7AEFF286008B10546CCE70C233360AF
:103D700070BD00BFD0780008024B0349186800F0FE
:103D800001BB00BFD0780008296B0008836B03B12A
:103D900070471BE7704700BF704700BF704700BF08
:103DA000704700BF024B0349186800F0C5BA00BF56
:103DB00008000020BD3C0008024B0349186800F0D1
:103DC000BBBA00BF08000020BD3B0008F8B5234F78
:103DD0000C46064600F00EFFBB685D6825F0030543
:103DE000291B01F6EF7121F47F6121F00F01A1F58C
:103DF0008054B4F5805F07DB0021304601F07EFD82
:103E0000BB682B44984204D0304600F0F5FE0020F9
:103E1000F8BD6142304601F071FD01300DD0104B0C
:103E2000BA6819682D1B45F001053046091B55601D
:103E3000196000F0E1FE0120F8BD0021304601F0DC
:103E40005DFDBA68831A0F2BDEDD064C0449246839
:103E500043F00103001B53600860D5E7B404002061
:103E6000E8380020BC080020002945D02DE9F041A9
:103E70000D46804600F0BEFE55F8047C6A4927F0E6
:103E80000103A5F10804E2188E685068B24220F0E0
:103E9000030062D0FE0750600BD455F8087CE41B89
:103EA00001F1080EA56875453B446FD0E768EF60E7
:103EB000BD6015186D68ED0742D543F001026260E0
:103EC000E350B3F5007F18D2DB085A1C4D6851F857
:103ED0003270A76001209B1000FA03F301EBC200CF
:103EE0001D430838E0604D6041F83240FC604046B8
:103EF000BDE8F04100F080BE70475A0A042A53D84A
:103F00009A0902F139077F0002F1380501EB8700B9
:103F100051F827204449083890424DD0516821F08B
:103F200003018B4202D292689042F7D1D068E060E0
:103F3000A2608460D4604046BDE8F04100F05CBE01
:103F400095683A4FBD4203443FD0D068E86043F0E3
:103F5000010285606260E350B3E7FF07034407D4C2
:103F600055F8082CA41A1344A068E268C260906057
:103F70002F4A126843F00100934260608C60B6D310
:103F80002C4B40461968FFF721FFB0E7111849682C
:103F9000C90744D49168D268CA60034443F0010061
:103FA00091606060E350A2E7142A17D802F15C0721
:103FB0007F0002F15B05A9E7AA104B68012505FA0D
:103FC00002F213434B600246B1E743F001024C6139
:103FD0000C61E560A5606260E35088E7542A06D86A
:103FE0001A0B02F16F077F0002F16E058EE7B2F542
:103FF000AA7F06D8DA0B02F178077F0002F1770575
:1040000084E740F25450824206D89A0C02F17D07B0
:104010007F0002F17C0579E7FE277E2576E743F0F5
:1040200001026260E35062E7B4040020BC04002097
:10403000C0080020E43800209368002B76D02DE9DA
:10404000F04F8B8985B00C4619070190164629D58B
:1040500022693AB303F002081FFA88F03568002895
:104060002FD04FF00009B34FC846B246B84543467B
:104070004A4628BF3B460198B8F1000F50D0E1698D
:10408000666AB047002871DDDAF808301B1A8144EF
:10409000C0EB0808CAF80830002BE7D1002005B0B3
:1040A000BDE8F08F21460198FEF7ACFC002840F0F7
:1040B0003981A389356803F002081FFA88F00028C7
:1040C000CFD113F001095AD14F4602961FB39A057A
:1040D000D4F808802CD54745C246C0F0A38013F41D
:1040E000906F40F0B08020685246494600F01EFDB7
:1040F000A0682368C8EB00005344A06023603846E2
:10410000029A93681B1A81443F1A9360002BC5D012
:10411000A389002FDBD1D5F800906F680835D5E76B
:10412000D5F80090D5F8048008359FE70020704747
:1041300020682369984203D861698F4280F0B68075
:10414000B84528BFB8464246494600F0EFFCA36890
:104150002268C8EB03034244A3602260002B48D1CD
:1041600021460198FFF702FD002842D0A38943F0C1
:1041700040034FF0FF30A38105B0BDE8F08F8046CB
:10418000029082468146B9F1000F2AD0029B002B93
:104190004CD0206823696269C845C34628BFCB4616
:1041A00098425F4604D9A36813449B4500F390806E
:1041B000934520DB1346676AE16901985246B84788
:1041C000071ED3DDB8EB070823D0B368DB1BBA4466
:1041D000C7EB0909B360002B3FF460AFB9F1000FE2
:1041E000D4D10023D5F800A0D5F804900293083567
:1041F000C9E7404684E75A46514600F097FCA2685A
:104200002368CBEB02025B44B8EB0708A260236093
:10421000DBD121460198FFF7A9FC0028A6D1CDF8F3
:104220000880D2E72068B846BA465DE74A460A21C8
:10423000504600F037FC00286FD001300123CAEB54
:1042400000080293A5E762692068216902EB420831
:10425000C1EB000A08EBD8780AF101004FEA6808C0
:1042600038444045424684BF804642465B0542D5BD
:104270001146019800F060F98346002855D0524657
:104280002169FCF749FFA38923F4906343F080037D
:10429000A381CAEB08030BEB0A00C4F81480C4F82E
:1042A00010B02060A360B846BA461DE76FF0004327
:1042B000BB4228BF3B464A4693FBF1F30198666A2E
:1042C00001FB03F3E169B04700283FF719AF4DE761
:1042D0001A465146039300F029FC2268039B01987B
:1042E0001A4422602146FFF741FC039B00287FF41B
:1042F0003DAF1F4666E7019801F010F9834600289C
:10430000C7D1019D21692846FFF7AEFDA3890C2284
:1043100023F080039BB22A6029E7012309F10108F9
:10432000029336E74FF0FF30B9E6019A0C23136091
:10433000A3891CE700FCFF7F2DE9F04110F53877D9
:104340001BD0884600267D68BC68013D0FD4A38938
:10435000012B05F1FF3506D9B4F90E3001332046A3
:1043600001D0C04706436B1C04F16804EFD13F68DD
:10437000002FE8D13046BDE8F0813E463046BDE82A
:10438000F08100BF2DE9F84310F538771FD088463B
:1043900006464FF000097D68BC68013D11D4A38931
:1043A000012B05F1FF3508D9B4F90E300133214650
:1043B000304602D0C04749EA00096B1C04F168048A
:1043C000EDD13F68002FE6D14846BDE8F883B946F5
:1043D0004846BDE8F88300BFB2B110B50B4910469E
:1043E000144601F021FB08B9094810BD08492046D0
:1043F00001F01AFB0028F7D02046064901F014FB13
:104400000028F1D0002010BD014870475079000805
:10441000D47800081C790008004870473804002050
:10442000014B186A704700BF3804002000487047ED
:104430005C04002000207047004870477C04002086
:10444000024B0A4601461868FFF7C6BF0800002065
:10445000004870477C0400208B899AB212F0020F4A
:104460003CD1F0B50C46B1F90E10002991B00546CB
:1044700019DB01AA02F02CFC002812DB029B03F4DA
:104480007043A3F50057B7FA87F7B3F5004F4FEA2B
:1044900057172AD0A38943F40063A3814FF48066A1
:1044A0000BE0A3899AB212F0800F43F40063A3815A
:1044B00014BF40264FF4806600273146284600F09E
:1044C0003BF8A38940B31A4AEA6343F08003A3810F
:1044D0002060206166619FB911B0F0BD01F1430316
:1044E00001220B600B614A617047124BA26A9A422B
:1044F000D0D1A3894FF480663343A381E664DCE71F
:104500002846B4F90E1002F0F7FB0028E4D0A38986
:1045100043F00103A381DFE79A05DDD404F14302F0
:1045200043F002030121A381226022616161D3E78C
:10453000C13B0008DD5900082DE9F04F01F10B05E2
:10454000162D83B0064640F29F8035F0070500F136
:10455000BF80A94200F2BC8000F04CFBB5F5FC7FA7
:10456000C0F099826B0A00F0BA80042B00F28781B8
:10457000A80900F1390E4FEA4E033830C64F07EB59
:104580008303A3F108015C68A14207D1ACE0002AD3
:1045900080F2AC80E468A14200F0A680636823F05A
:1045A00003035A1B0F2AF2DDBB493C6901F1080ED7
:1045B000744500F0AF81636823F003035A1B0F2A90
:1045C00000F39581002AC1F814E0C1F810E080F2F0
:1045D0009E80B3F5007F80F06381DB0803F1010C5E
:1045E00001229B1002FA03F34A6851F83C80C4F898
:1045F000088001EBCC091A43A9F10803E3604A6083
:1046000041F83C40C8F80C40831001249C4094427F
:1046100000F28A80144206D120F0030064001442A4
:1046200000F10400FAD007EBC009CC468046DCF864
:104630000C108C4507D16FE1002A80F27D81C9689A
:104640008C4500F069814B6823F003035A1B0F2A45
:10465000F2DD0C46D1F80CC054F8088F4B1945F028
:1046600001054D6042F00101C8F80CC03046CCF89D
:1046700008807B613B61C3F80CE0C3F808E0596037
:104680009A5000F0B9FA1FE0102921D800F0B2FAD0
:10469000102506230220804F07EB8303A3F10802B5
:1046A0005C68944200F041816368E168A56823F08A
:1046B0000303234430465A68E96042F001028D60EA
:1046C0005A6000F099FA0834204603B0BDE8F08F34
:1046D00000240C232046336003B0BDE8F08F802314
:1046E0004FF0400E3F2049E770465DE72344E16804
:1046F0005A68A56842F00102E96030468D605A6050
:1047000000F07AFA0834204603B0BDE8F08F234465
:1047100030465A6842F001025A6000F06DFA0834DF
:10472000204603B0BDE8F08FBC68636823F003083F
:10473000A84504D3C5EB08030F2B00F39080DFF8E6
:104740005C91D7F80834D9F80020013304EB080A4B
:104750002A4400F05C8102F580520F3222F47F621D
:1047600022F00F0211463046019201F0C7F8B0F175
:10477000FF3F8346019A00F05481824500F2F880A1
:10478000D9F80410DA451144C9F8041000F04E813C
:10479000D7F80834404801331BBFCAEB0B0A514419
:1047A000C0F808B4C9F804101BF0070100F012812A
:1047B000C1F10803C1F580519B4408310BEB0203A2
:1047C000C3F30B03C3EB010A5146304601F096F8E0
:1047D000431C00F03C81CBEB0003534443F0010346
:1047E000D9F80410C7F808B05144BC42CBF80430E3
:1047F000C9F80410DFF8A4A016D0B8F10F0F40F2EA
:10480000F7806268A8F10C0323F00703E01802F0B8
:1048100001024FF0050E1A430F2B6260C0F804E04E
:10482000C0F808E000F21781D9F82C301B4ABC68A8
:104830009942D9F8303088BFD162184A994288BF6E
:104840001163626822F003029542A2EB050301D8CE
:104850000F2B04DC304600F0CFF9002434E7621956
:1048600043F0010345F0010565603046BA605360CE
:1048700000F0C2F90834204603B0BDE8F08F142BD5
:1048800069D9542B00F29C80280B00F16F0E4FEA7F
:104890004E036E3072E600BFB4040020E4380020FE
:1048A0005A0A042A5ED9142A00F2B38002F15C018C
:1048B00049005B3207EB810C57F82110DFF8E081EB
:1048C000ACF1080C8C4500F088804A6822F00302A5
:1048D000934202D289688C45F7D1D1F80CC07A682E
:1048E000C4F80CC0A160CCF80840CC608CE6631919
:1048F00042F0010745F00105656030464B610B61F0
:10490000C3F80CE0C3F808E05F609A50083400F088
:1049100073F9D9E64A6877E608F1010818F0030F41
:104920000CF1080C7FF483AE30E0DC68A34208BFD2
:1049300002303FF439AEB7E60B440C465A68C968FA
:1049400054F8085F42F001025A603046E9608D6019
:1049500000F052F9B8E603F15C0E03F15B004FEA98
:104960004E030BE69A0902F1390149003832A1E7FA
:10497000BC424B4B3FF404AF9C68626822F00302D8
:1049800062E759F80839994540F0838010F0030F29
:1049900000F1FF30F5D17B6823EA04037B606400FB
:1049A0009C423FF6C1AE002C3FF4BEAE1C424046D6
:1049B0007FF439AE64001C4200F10400FAD032E604
:1049C000B3F5AA7F18D8E80B00F1780E4FEA4E0332
:1049D0007730D3E54FF48051F0E60121D8F8043068
:1049E000921001FA02F21A43C8F80420614677E7F0
:1049F0000123CBF804302DE740F25452934221D8E2
:104A0000A80C00F17D0E4FEA4E037C30B6E5103263
:104A1000A8E6542A27D81A0B02F16F0149006E321A
:104A200048E7BC68626822F003020DE7CAF30B0393
:104A3000002B7FF4ADAE08EB0203BA6843F001032C
:104A40005360F1E6FE234FF07F0E7E2096E50123B2
:104A50004FF0000AC4E604F108013046FFF704FAFB
:104A6000DAF80410E0E6B2F5AA7F05D8DA0B02F115
:104A70007801490077321DE740F254518A4205D847
:104A80009A0C02F17D0149007C3213E7FE217E225F
:104A900010E77B6883E7E808431C5B00FBE500BF89
:104AA000B4040020830770B4C9B23BD0531E0AB3CC
:104AB00002788A421FD0421C05E0DBB104788C42A8
:104AC00003F1FF3317D012F0030F104602F1010279
:104AD000F3D1032B11D83BB302788A420BD00344A5
:104AE000421C02E004788C4205D09342104602F149
:104AF0000102F7D1002070BC704741EA012604464C
:104B000046EA06462046043402687240A2F10135A6
:104B100025EA020212F0803FDED1043B032B20463F
:104B2000F0D8D8E71346D4E71846E4E78842F0B552
:104B30000DD98B1898420AD28118002A51D09A1A9E
:104B400013F8014D01F8014D9342F9D1F0BD0F2A40
:104B500048D941EA00039B0746D100F1100401F156
:104B60001003154653F8106C44F8106C53F80C6C95
:104B700044F80C6C53F8086C44F8086C103D53F87A
:104B8000046C44F8046C0F2D03F1100304F11004BD
:104B9000E8D8A2F1100323F00F0302F00F0E103338
:104BA000BEF1030F1944034421D91E1F0D4674465C
:104BB000043C55F8047B46F8047F032CF8D8AEF18A
:104BC000040424F0030404342344214402F00302C7
:104BD00062B1013B0A4411F8014B03F8014F8A42CC
:104BE000F9D1F0BD0346F3E70346F2E7F0BD7246A4
:104BF000EEE700BF704700BF704700BFC36C70B5E1
:104C000005460C464BB153F8240080B1026843F8C6
:104C1000242000230361C36070BD2122042101F020
:104C200041FFE86403460028EDD1002070BD01215A
:104C300001FA04F6721D2846920001F033FF0028A5
:104C4000F3D044608660E4E731B1C36C4A6853F83E
:104C50002200086043F82210704700BFF0B50C69CD
:104C600083B00D46064601F1140E0027DEF8000061
:104C700081B202FB01310B0C000C02FB003389B244
:104C8000013701EB0341BC424EF8041B4FEA1343CA
:104C9000ECDC3BB1AA68944207DA05EB84020134EC
:104CA00053612C61284603B0F0BD6968019301315E
:104CB0003046FFF7A3FF2A69023205F10C010746CF
:104CC00092000C30FCF728FAF26C6968019B52F8EC
:104CD0002100286042F821503D46DEE72DE9F843E7
:104CE000234C089D1F46083384FB034EDB17C3EBA0
:104CF0006E0EBEF1010F06460C46904635DD0123CF
:104D000000215B009E4501F10101FADC3046FFF70E
:104D100075FF0123B8F1090F4561036121DD04F13D
:104D200009094D46444415F8013B0146303B0A222F
:104D30003046FFF793FFA542F5D109EB0804083C84
:104D400047450CDDC8EB0707274414F8013B014633
:104D5000303B0A223046FFF781FFA742F5D1BDE87C
:104D6000F8830A344FF00908EAE70021CEE700BFD4
:104D7000398EE338030C1B04B3B90004102310F080
:104D80007F4F04BF0002083310F0704F04BF0001D2
:104D9000043310F0404F04BF80000233002807DBCB
:104DA000420003D4202070470023E8E7581C7047D6
:104DB00018467047036813F0070207D0D90720D4BC
:104DC0009A0720D49B0803600220704799B209B962
:104DD0001B0C102213F0FF0F04BF1B0A0832190727
:104DE00004BF1B090432990704BF9B080232D9078C
:104DF00004D45B0801D120207047013203601046C3
:104E00007047002070475B0803600120704700BFB7
:104E100010B50C460121FFF7F1FE01224461026149
:104E200010BD00BF2DE9F04F0D691769BD4283B079
:104E30000C46164604DA2A4634463D460E461746C8
:104E4000A368616805EB07089845C8BF0131FFF703
:104E5000D5FE00F1140C0CEB8809CC45009005D26E
:104E60006346002143F8041B9945FBD806F1140260
:104E700002EB870A04F11403524503EB850E54D26A
:104E8000CDF80490994652F8043B1FFA83FBBBF11E
:104E9000000F20D000204F466646054600E01E4623
:104EA00057F8044B3068A1B283B20BFB0131240CDC
:104EB000000C4B190BFB040000EB134099B2334676
:104EC00041EA0041BE454FEA104543F8041BE6D8CD
:104ED000756052F8043C5FEA134B20D0DCF80030D8
:104EE000674618464D46002100E037462C88000CE6
:104EF0000BFB040001449CB23E4644EA014346F8E1
:104F0000043B786855F8044B83B2240C0BFB043443
:104F100004EB1143AE454FEA1341E6D87B6092455E
:104F20000CF1040CAFD8DDF80490B8F1000F0BDDE4
:104F300059F8043CA9F104091BB105E059F8043DF6
:104F400013B9B8F10108F9D10098C0F8108003B086
:104F5000BDE8F08F12F003032DE9F0411446074637
:104F60002ED10E46A4101CD0BD6C95B3E3074FF0B4
:104F7000000806D4641014D02868A8B10546E307D9
:104F8000F8D52A4631463846FFF74CFFB6B172686D
:104F9000FB6C641053F82210316043F8226006461F
:104FA000EAD13046BDE8F0812A4629463846FFF767
:104FB00039FF2860C0F800800546E0E70646D9E7DB
:104FC0005A1E0B4D002355F82220FFF747FE0646D8
:104FD000C8E701213846FFF711FE40F27121012296
:104FE0000023416102610546B8640360BEE700BF6B
:104FF000607900082DE9F04791460A698B684FEA0D
:10500000691404EB020808F101059D420E46824630
:10501000496804DD5B009D4201F10101FADC504664
:10502000FFF7ECFD002C00F1140238DD02EB8403E5
:10503000002142F8041B9342FBD1346906F11401AC
:1050400019F01F0901EB840E21D0C9F120020024C0
:105050000F6807FA09FC4CEA04049C4643F8044B29
:1050600051F8044B8E4524FA02F4F1D8CCF80440F0
:105070000CB108F10205DAF84C307268013D53F8C2
:1050800022100561316043F82260BDE8F087043BDF
:1050900051F8042B43F8042F8E45F9D8EBE713465B
:1050A000CBE700BF02690B69D21A13D19B00143001
:1050B0001431194410B4034401E098420CD253F85F
:1050C000044D51F8042D9442F7D009D301205DF826
:1050D000044B70471046704700205DF8044B704742
:1050E0004FF0FF30F3E700BF2DE9F8430B690F469F
:1050F00011695B1A002B904617D1890007F1140241
:1051000008F114055318294401E09A425ED253F87D
:10511000046D51F8044DA642F7D060D23B461446C8
:1051200047464FF00109984606E05DDB07F114059C
:1051300002F114044FF000097968FFF75FFDD8F819
:1051400010303E69C0F80C9004EB830CA64605EBCA
:10515000860700F1140400235EF8041B55F8048B45
:105160008AB213FA88F3090C9A1AC1EB184303EBBD
:10517000224392B242EA0342F44544F8042B4FEA38
:105180002343E9D8AF4217D9A446294651F804EB86
:1051900013FA8EF2131403EB1E4392B242EA034257
:1051A0008F424CF8042B4FEA2343EFD8ED433D44A4
:1051B00025F0030504352C44043C22B954F8043D81
:1051C000013E002BFAD00661BDE8F8830021FFF70D
:1051D00015FD0122002302614361BDE8F8832C46DE
:1051E0004FF000091546A7E73B4607F1140408F104
:1051F000140547464FF0010998469DE7134B10EE02
:10520000902A1A40A2F15073002B04DD00201946A9
:1052100041EC100B70475B421B15132B0DDD143B4B
:105220001E2BDDBFC3F11F03012202FA03F301238A
:105230000021184641EC100B70474FF4002200206B
:1052400042FA03F141EC100B704700BF0000F07F01
:105250002DE9F041066900F1140808EB860656F8BE
:10526000047C3846FFF786FDC0F120030A280B6056
:10527000A6F1040318DC9845C0F10B0238BF56F8BC
:10528000083C27FA02F100F1150041F07F5534BFC8
:10529000D340002307FA00F045F4401540EA030428
:1052A00045EC104BBDE8F081984520D2B0F10B03DE
:1052B00056F8082C1ED007FA03F040F07F57C3F1D0
:1052C000200EA6F1080147F4401722FA0EF0884597
:1052D00047EA000520D256F80C1C02FA03F021FA26
:1052E0000EF31843044645EC104BBDE8F0810B3833
:1052F00009D1024647F07F5545F44015144645EC68
:10530000104BBDE8F08107FA00F040F07F55002017
:1053100045F440150446E6E702FA03F00446E2E7E6
:105320002DE9F04357EC106B83B0884601213C46D1
:10533000C7F30A551746FFF761FCC4F3130481460F
:105340000DB144F4801401941EB302A840F8086D16
:10535000FFF730FD002834D19DE80C00C9F8142077
:10536000002B0CBF01210221C9F81830C9F8101018
:10537000DDB909EB8103A0F23240C8F800001869DA
:10538000FFF7F8FCC0EB41103860484603B0BDE8B9
:10539000F08301A8FFF70EFD019BC9F8143001212D
:1053A0002030C9F81010002DE3D0A5F23345054494
:1053B000C0F13500C8F800503860484603B0BDE879
:1053C000F0839DE80C00C0F1200103FA01F10A43CB
:1053D000C3400193C9F81420C2E700BF2DE9F04390
:1053E00083B0884669468146FFF732FF404601A9EF
:1053F00055EC104BFFF72CFF9DE80A00D9F8102060
:10540000D8F81000C91A101A01EB4013002B57EC02
:10541000106B0DDD05EB03510D4632463B46204631
:10542000294602F061F841EC100B03B0BDE8F083AF
:10543000A7EB035910EE106A4F46EEE7172810B598
:1054400004460ADD084900200022084B01F022FF33
:10545000013CF9D141EC100B10BD054B03EBC0042E
:1054600094ED040B10BD00BF0000F03F000024408D
:105470006079000870B4146902F1140301394E1107
:1054800003EB84040136A34200EB86060CD2011F15
:1054900053F8045B41F8045F9C42F9D8A31A153B0A
:1054A00023F0030304331844864204D9002340F850
:1054B000043B8642FBD870BC704700BF03694A11A9
:1054C000934210B400F1140410DA04EB83039C42FD
:1054D00021D253F8040C043B18B115E053F8042D05
:1054E00092B99C42FAD35DF8044B704710DD11F07D
:1054F0001F010DD054F8220020FA01F303FA01F144
:10550000884204EB8203E2D001205DF8044B70472F
:1055100004EB8203DBE70020E5E700BF2DE9F04F55
:10552000174683B0002900F0C1800E46814607F17E
:105530000B05FFF75FFB56F804EC162D2EF0030465
:10554000A6F1080840D810221546AF4241D894422F
:1055500075DAC94B996808EB04008842416800F08D
:10556000D98021F0010303445B68DB077DD51EF081
:10557000010F35D039464846FEF7DEFF0746E0B159
:1055800056F8043C23F001034344A0F108029A4278
:1055900000F04481221F242A00F23181132A00F2F4
:1055A0000481034632461168196051685960926857
:1055B0009A6031464846FEF757FC4846FFF71CFB09
:1055C000384603B0BDE8F08F25F00705002D2A46C8
:1055D000BBDA0C230020C9F8003003B0BDE8F08F1F
:1055E00056F8083CC3EB080ADAF8043023F0030C41
:1055F00004EB0C039342BDDB5746DAF80C1057F866
:10560000080F221F242AC160886000F21781132A24
:1056100040F212813168CAF808107168CAF80C109B
:105620001B2A00F22B8108360AF110023168116042
:1056300071685160B16891603E461C46D046631B5C
:105640000F2B1DD8D8F8043003F001032343444442
:10565000C8F80430636843F0010363604846FFF70D
:10566000CBFA304603B0BDE8F08F21F003012144AE
:10567000914221DBC36882680C46D3609A60DEE702
:10568000D8F8042008EB050102F00102154343F0AD
:1056900001020B44C8F804504A605A6842F0010203
:1056A00008315A604846FEF7DFFBD7E7114603B0E2
:1056B000BDE8F04FFEF740BF1EF0010F7FF45AAF78
:1056C00056F8083CC3EB080ADAF8043023F0030C60
:1056D00001EB0C0E96458BDBC36882685746D3609E
:1056E0009A6057F8081FDAF80C30CB60221F242A82
:1056F000996000F29980132A62D93368CAF8083099
:105700007368CAF80C301B2A00F2A08008360AF130
:10571000100356E021F0030BA34405F1100083456C
:1057200059DA1EF0010F7FF425AF56F8081CC1EBC3
:10573000080ADAF8041021F0030CE34458453FF757
:1057400057AF5746DAF80C1057F8080F221F242AD3
:10575000C160886000F2B480132A40F2A5803168ED
:10576000CAF808107168CAF80C101B2A00F2AF8042
:1057700008360AF110023168116071685160B16831
:1057800091600AEB0501C5EB0B0242F00102996042
:105790004A60DAF8043003F001031D434846CAF8B2
:1057A0000450FFF729FA38465CE7336803607368F2
:1057B00043601B2A27D800F1080306F10802F2E62D
:1057C0003B4632681A6072685A60B2689A603E4618
:1057D0007446D04633E708EB0501C5EB0B0B4BF0E5
:1057E000010299604A6056F8043C03F001031D432E
:1057F000484646F8045CFFF7FFF9304632E7314689
:10580000FFF794F9D5E6B3688360F368C360242A90
:1058100028D000F1100306F11002C4E650F8043C51
:1058200023F003031C440AE7314638467446D04649
:10583000FFF77CF93E4602E73A46F7E6314638463E
:105840001C46D046FFF772F93E46F8E6B368CAF840
:105850001030F368CAF81430242A1BD010360AF12D
:105860001803AEE7336903617369436106F11802F7
:1058700000F1180397E600BFB4040020B168CAF82D
:105880001010F168CAF81410242A0FD010360AF14B
:105890001802CBE63369CAF818307369CAF81C30AD
:1058A00018360AF120038CE73A4664E73269CAF8F1
:1058B00018207269CAF81C2018360AF12002B5E6D1
:1058C000314638460193FFF731F9019B59E7B1683A
:1058D000CAF81010F168CAF81410242A03D0103640
:1058E0000AF1180247E73269CAF818207269CAF843
:1058F0001C2018360AF120023DE700BF38B5074CDE
:105900000023054608462360FAF72CFD431C00D00F
:1059100038BD2368002BFBD02B6038BD1839002020
:1059200053EC102B33F0004110B408D01148A3F50C
:105930008014844208D804205DF8044B70471AB9DB
:1059400002205DF8044B704703F1FF43094803F55B
:10595000E0038342EFD9B1F5801F01D20320EBE7CA
:10596000054B994201D00020E6E7B2FA82F04009E7
:10597000E2E700BFFFFFDF7F0000F07F10B50C46BD
:10598000B1F90E1001F0E0F9002803DB236D0344A8
:10599000236510BDA38923F48053A38110BD00BFEC
:1059A000002070472DE9F04116468A891F46D3052D
:1059B0000C46054606D500220223B1F90E1001F06F
:1059C000ADF9A289B4F90E1022F48052A2813B46AF
:1059D00032462846BDE8F04101F04EB810B50C46FD
:1059E000B1F90E1001F09AF9A389421C0EBF23F4FD
:1059F000805343F480532065A38110BDB1F90E108C
:105A000001F080B80000000000000000000000006D
:105A10000000000000000000000000000000000086
:105A2000A2EB0300704700BF02780B78012A28BF61
:105A30009A42F5D16DE9044540EA0104CDE90267D7
:105A40006FF0000C4FEA447212B380EA010414F0C4
:105A5000070F6AD100F0070420F0070004F00305E7
:105A600021F007014FEAC505F0E8042314F0040F04
:105A7000F1E804670CFA05F462EA040266EA040637
:105A80000AD063EA0403624667EA0407664603E055
:105A9000F0E80423F1E8046782FA4CF582EA060490
:105AA000A4FA8CF46CBB83FA4CF583EA0705A5FADB
:105AB0008CF595B950E9022351E9026782FA4CF559
:105AC00082EA0604A4FA8CF483FA4CF583EA07050B
:105AD000A5FA8CF52543DBD09CB92DBAB5FA85F42F
